{
    "contractName": "SushiCalls",
    "abi": [
        {
            "inputs": [],
            "name": "sushiCalls",
            "outputs": [],
            "stateMutability": "nonpayable",
            "type": "function"
        }
    ],
    "bytecode": "6080604052348015600f57600080fd5b50606580601d6000396000f3fe6080604052348015600f57600080fd5b506004361060285760003560e01c80635dc6f19b14602d575b600080fd5b00fea264697066735822122007059d61554cd34f46157a47ec1a2503d0a9114c1d4b91085b341fa1466158b564736f6c63430008110033",
    "sourcePath": "c:/Users/dater/Mi unidad/Blockchain/Solidity_projects/Sushi_Challenge/contracts/SushiCalls.sol",
    "compiler": {
        "name": "solc",
        "version": "0.8.17+commit.8df45f5f"
    },
    "functionHashes": {
        "sushiCalls()": "5dc6f19b"
    },
    "gasEstimates": {
        "creation": {
            "codeDepositCost": "20200",
            "executionCost": "75",
            "totalCost": "20275"
        },
        "external": {
            "sushiCalls()": "98"
        }
    }
}